:100000000C9434000C943E000C943E000C943E0082
:100010000C943E000C943E000C943E000C943E0068
:100020000C943E000C943E000C943E000C943E0058
:100030000C943E000C943E000C943E000C943E0048
:100040000C943E000C943E000C9450000C943E0026
:100050000C943E000C943E000C943E000C943E0028
:100060000C943E000C943E0011241FBECFEFD8E04C
:10007000DEBFCDBF0E9440000C9464000C940000D1
:100080001092C00088E98093C10086E08093C2008E
:1000900087E690E09093C5008093C4007894FFCFEA
:1000A0001F920F920FB60F9211248F93EF93FF932D
:1000B000E6ECF0E080818083FF91EF918F910F90CB
:0C00C0000FBE0F901F901895F894FFCF12
:00000001FF
