:100000000C9434000C943E000C943E000C943E0082
:100010000C943E000C943E000C943E000C943E0068
:100020000C943E000C943E000C943E000C943E0058
:100030000C943E000C943E000C943E000C943E0048
:100040000C943E000C943E000C943E000C943E0038
:100050000C943E000C943E000C943E000C943E0028
:100060000C943E000C943E0011241FBECFEFD8E04C
:10007000DEBFCDBF0E9440000C9458000C940000DD
:100080001092C00088E18093C10086E08093C20096
:1000900087E690E09093C5008093C400E0ECF0E028
:1000A000A6ECB0E080818823ECF78C918C93FACF9A
:0400B000F894FFCFF2
:00000001FF
